:0400000007EF00F016
:10000800318207ED03F0D9EF06F0F28E000E000101
:100018007A6F000E796FE0EC06F0000E00017C6F3D
:10002800350E7B6F000E766FED0E756FB9EC06F02E
:100038000001716F7151736F746B07D1000E6B6F94
:10004800280E6A6F4FEC05F07BC068F07CC069F041
:1000580051EC06F041D1000E00016B6F420E6A6F41
:100068004FEC05F07BC068F07CC069F051EC06F0FD
:1000780033D1000E00016B6F420E6A6F4FEC05F032
:100088007BC068F07CC069F051EC06F025D1000E09
:1000980000016B6F420E6A6F4FEC05F07BC068F091
:1000A8007CC069F051EC06F017D1000E00016B6FAF
:1000B800420E6A6F4FEC05F07BC068F07CC069F0B7
:1000C80051EC06F009D1000E00016B6F420E6A6F09
:1000D8004FEC05F07BC068F07CC069F051EC06F08D
:1000E800FBD0000E00016B6F420E6A6F4FEC05F0FB
:1000F8007BC068F07CC069F051EC06F0EDD0000ED2
:1001080000016B6F420E6A6F4FEC05F07BC068F020
:100118007CC069F051EC06F0DFD0000E00016B6F77
:10012800280E6A6F36EC05F07BC068F07CC069F079
:1001380051EC06F0D1D0000E00016B6F420E6A6FD1
:1001480036EC05F07BC068F07CC069F051EC06F035
:10015800C3D0000E00016B6F420E6A6F36EC05F0DB
:100168007BC068F07CC069F051EC06F0B5D0000E99
:1001780000016B6F420E6A6F36EC05F07BC068F0C9
:100188007CC069F051EC06F0A7D0000E00016B6F3F
:10019800420E6A6F36EC05F07BC068F07CC069F0EF
:1001A80051EC06F099D0000E00016B6F420E6A6F99
:1001B80036EC05F07BC068F07CC069F051EC06F0C5
:1001C8008BD0000E00016B6F420E6A6F36EC05F0A3
:1001D8007BC068F07CC069F051EC06F07DD0000E61
:1001E80000016B6F420E6A6F36EC05F07BC068F059
:1001F8007CC069F051EC06F06FD0000E00016B6F07
:10020800350E6A6F81EC05F067D0000E00016B6F48
:10021800350E6A6F68EC05F05FD0000E00016B6F59
:10022800670E6A6F81EC05F057D0000E00016B6F06
:10023800670E6A6F68EC05F04FD0000E0001696F19
:10024800350E686F51EC06F047D073C071F074C07A
:1002580072F000017251000AD8A4EFD77151080A50
:10026800D8B4CBD7100AD8B4E9D6380AD8B4CDD781
:10027800100AD8B452D7700AD8B4CFD7080AD8B45D
:10028800EAD6180AD8B4F5D6080AD8B400D7380A76
:10029800D8B40BD7080AD8B416D7180AD8B421D7B7
:1002A800080AD8B42CD7F80AD8B4BFD7080AD8B4E3
:1002B80042D7180AD8B44DD7080AD8B458D7380A3C
:1002C800D8B463D7080AD8B46ED7180AD8B479D77F
:1002D800080AD8B484D7B1D7010E00017925796FFF
:1002E800000E7A217A6F7951755D7651800A716FA7
:1002F8007A51800A7159D8B007D0C2EC04F0000EC8
:1003080000017A6F000E796F80A803D0716B712B92
:1003180002D00001716B7151776F786B775178114A
:10032800D8B4120083D6F29E43EC06F0000E00010A
:10033800696F010E686F72EC06F080A804D00001A6
:100348007D6B7D2B02D000017D6B7D51816F826BAF
:1003580010D080A803D07D6B7D2B02D000017D6B6F
:100368007D51816F826B000E696F010E686F72ECB0
:1003780006F0000181518211D8B4EBD7A9EC06F040
:1003880000017D6F7D517F6F806BE0EC06F0F28E8F
:1003980033EC06F015D1010E0001696F180E686F75
:1003A8005CEC06F0000E0001696F320E686F72ECAB
:1003B80006F0230EBE6E1A0EBB6E000E00016B6FA8
:1003C8005A0E6A6F81EC05F0010E826E020E836E82
:1003D800070E0001646FD00E636F1CEC05F0030E6E
:1003E8000001696FE80E686F72EC06F09FD7010E86
:1003F8000001696F180E686F5CEC06F0000E0001D2
:10040800696F320E686F72EC06F0230EBE6E1A0E1C
:10041800BB6E000E00016B6F5F0E6A6F81EC05F01A
:10042800010E826E020E836E070E0001646FD00EFD
:10043800636F1CEC05F0030E0001696FE80E686F2E
:1004480072EC06F073D7010E0001696F180E686F21
:100458005CEC06F0000E0001696F320E686F72ECFA
:1004680006F0230EBE6E1A0EBB6E000E00016B6FF7
:10047800640E6A6F81EC05F0010E826E020E836EC7
:10048800070E0001646FD00E636F1CEC05F0030EBD
:100498000001696FE80E686F72EC06F047D7010E2D
:1004A8000001696F220E686F5CEC06F0000E000117
:1004B800696F320E686F72EC06F0230EBE6E1A0E6C
:1004C800BB6E000E00016B6F640E6A6F81EC05F065
:1004D800010E826E020E836E070E0001646FD00E4D
:1004E800636F1CEC05F0030E0001696FE80E686F7E
:1004F80072EC06F01BD7010E0001696F2C0E686FB5
:100508005CEC06F0000E0001696F320E686F72EC49
:1005180006F0230EBE6E1A0EBB6E000E00016B6F46
:10052800640E6A6F81EC05F0010E826E020E836E16
:10053800070E0001646FD00E636F1CEC05F0030E0C
:100548000001696FE80E686F72EC06F0EFD6010ED5
:100558000001696F900E686F5CEC06F0000E0001F8
:10056800696F320E686F72EC06F0230EBE6E1A0EBB
:10057800BB6E000E00016B6F640E6A6F81EC05F0B4
:10058800010E826E020E836E070E0001646FD00E9C
:10059800636F1CEC05F0030E0001696FE80E686FCD
:1005A80072EC06F0C3D665EC04F009EC00F0BED698
:1005B800000E0001696F010E686F72EC06F0B6D686
:1005C8007FC07DF080C07EF000017E51000AD8A473
:1005D800EFD77D51000AD8B4DED6010AD8B407D7C0
:1005E800030AD8B430D7010AD8B459D7070AD8B4FF
:1005F80082D7010AD8B4ABD7030AD8B497D6010A70
:10060800D8B4D1D7D5D70600FACF11F0FBCF12F066
:10061800E9CF13F0EACF14F0E1CF15F0E2CF16F0EE
:10062800D9CF17F0DACF18F0F3CF19F0F4CF1AF0CA
:10063800F6CF1BF0F7CF1CF0F8CF1DF0F5CF1EF06A
:1006480031C01FF032C020F033C021F034C022F096
:10065800C9EC06F00F6E0F50256E266AF00E2514B1
:10066800256E266AC1EC06F00F6E0F502D6E2E6AAD
:10067800F80E2D142D6E2E6AD1EC06F00F6E0F5069
:10068800236E246A010E286E490E276E000E2A6E0C
:100698004A0E296E000E2C6E3B0E2B6EC3D0000E38
:1006A8000C6E4F0E0B6E88EC06F0000E0C6E0D0EE5
:1006B8000B6E93EC06F0000E0E6E830E0D6EE0ECE2
:1006C80005F0000E0C6E0D0E0B6E93EC06F0000E8E
:1006D8000C6EC50E0B6E88EC06F0000E0E6E420E08
:1006E8000D6EC9EC05F0010E0C6E490E0B6E88EC10
:1006F80006F0C0D0000E0C6E4F0E0B6E88EC06F0A4
:10070800000E0C6E0D0E0B6E93EC06F0000E0E6EC6
:10071800830E0D6EF7EC05F0000E0C6E0D0E0B6ED1
:1007280093EC06F0000E0C6EC50E0B6E88EC06F00E
:10073800000E0E6E420E0D6EB2EC05F0010E0C6E40
:10074800490E0B6E88EC06F095D027C00BF028C038
:100758000CF088EC06F02D502E10D8B407D02BC022
:100768000BF02CC00CF09EEC06F084D029C00DF0E4
:100778002AC00EF0B2EC05F07DD027C00BF028C0DF
:100788000CF088EC06F02D502E10D8B407D02BC0F2
:100798000BF02CC00CF09EEC06F06CD029C00DF0CC
:1007A8002AC00EF0C9EC05F065D027C00BF028C0B0
:1007B8000CF088EC06F02D502E10D8B407D02BC0C2
:1007C8000BF02CC00CF09EEC06F054D0140E29242B
:1007D8000D6E000E2A200E6EC9EC05F04BD00A0EE5
:1007E8000C6E460E0B6E9EEC06F044D00A0E0C6E94
:1007F800460E0B6E9EEC06F03DD00A0E0C6E460EB1
:100808000B6E9EEC06F036D00A0E0C6E460E0B6E82
:100818009EEC06F02FD0000E0C6E010E0B6E7DECD8
:1008280006F028D025C00FF026C010F01050000A9E
:10083800D8A4F1D70F50000AD8B41CD0400AD8B4B5
:100848009CD7100AD8B42BD7200AD8B4D6D7F00A28
:10085800D8B47BD7200AD8B44DD7100AD8B4C6D795
:10086800700AD8B4A2D7200AD8B4B9D7100AD8B415
:10087800CBD7D1D7F29222C034F021C033F020C0B8
:1008880032F01FC031F01EC0F5FF1DC0F8FF1CC0BC
:10089800F7FF1BC0F6FF1AC0F4FF19C0F3FF18C01A
:1008A800DAFF17C0D9FF16C0E2FF15C0E1FF14C078
:1008B800EAFF13C0E9FF12C0FBFF11C0FAFF319233
:1008C8001100F29E000E0001716F010E706F71BF72
:1008D80006D0715152E1220E705DD8B01200B9EC09
:1008E80006F000016C6F6C516E6F6F6BE80E6E1541
:1008F8006E6F6F6B27D0000E6B6F320E6A6F81ECD4
:1009080005F01200000E00016B6F320E6A6F68EC82
:1009180005F01200000E00016B6F640E6A6F81EC27
:1009280005F01200000E00016B6F640E6A6F68EC30
:1009380005F01200000E0001696F010E686F72EC7D
:1009480006F017D06EC06CF06FC06DF000016D51ED
:10095800000AD8A4EFD76C51080AD8B4CCD7280A13
:10096800D8B4D0D7600AD8B4D5D7C00AD8B4DAD7A3
:10097800E1D70001704B712BAAD71200F29E000E2E
:100988000001696F140E686F72EC06F0000E00012A
:10099800696FC60E686F5CEC06F0000E0001696FA7
:1009A800140E686F72EC06F0000E00016B6F210EDA
:1009B8006A6F81EC05F0000E00016B6F1E0E6A6F06
:1009C80081EC05F0000E0001706F000E6F6F70BFB4
:1009D80006D0705125E1B90E6F5DD8B021D0B1ECC9
:1009E80006F000016C6F6C516D6F6E6B030E6D1528
:1009F8006D6F6E6B6D516E11D8B407D0000E696FB4
:100A0800820E686F5CEC06F00BD0000E0001696F77
:100A1800010E686F51EC06F000016F4B702BD7D7B1
:100A2800000E00016B6F960E6A6F68EC05F01200FD
:100A3800000E0001676F000E666F09D0010E306E60
:100A4800900E2F6E0EEC06F00001664B672B63517B
:100A5800665D6751800A656F6451800A6559D8B030
:100A68001200ECD7000E0001696F190E686F67EC71
:100A780006F0000E826E020E836E6AC063F06BC0D1
:100A880064F01CEC05F0000E0001696F190E686F28
:100A980072EC06F01200000E0001696F190E686F03
:100AA80067EC06F0010E826E000E836E6AC063F07A
:100AB8006BC064F01CEC05F0000E0001696F190EA4
:100AC800686F72EC06F01200000E0001696F1E0ECE
:100AD800686F67EC06F0000E826E030E836E6AC0C4
:100AE80063F06BC064F01CEC05F0000E0001696F48
:100AF800190E686F72EC06F01200000E0001696FA3
:100B08001E0E686F67EC06F0010E826E040E836E8F
:100B18006AC063F06BC064F01CEC05F0000E0001C5
:100B2800696F190E686F72EC06F01200000E0A6EFB
:100B3800000E096E08D0010E026E900E016E21ECB7
:100B480006F0094A0A2A0650095C0A50800A086E0B
:100B58000750800A0858D8B01200EDD7000E0C6E66
:100B68001E0E0B6E93EC06F0000E826E030E836E63
:100B78000DC006F00EC007F09AEC05F0000E0C6EE2
:100B8800190E0B6E9EEC06F01200000E0C6E1E0E77
:100B98000B6E93EC06F0010E826E040E836E0DC090
:100BA80006F00EC007F09AEC05F0000E0C6E190E58
:100BB8000B6E9EEC06F01200000E0C6E190E0B6EFA
:100BC80093EC06F0000E826E040E836E0DC006F0E4
:100BD8000EC007F09AEC05F0000E0C6E190E0B6EA5
:100BE8009EEC06F01200000E0C6E190E0B6E93ECC4
:100BF80006F0000E826E010E836E0DC006F00EC068
:100C080007F09AEC05F0000E0C6E190E0B6E9EECB8
:100C180006F01200000E0001626F000E616F02D034
:100C2800614B622B2F50615D6251800A606F3050BA
:100C3800800A6059D8B01200F3D7000E056E000E76
:100C4800046E02D0044A052A0150045C0550800A4B
:100C5800036E0250800A0358D8B01200F3D7240E4E
:100C6800CB6E230EBE6E230EBB6E030ECA6E0C0E29
:100C7800BD6E0C0EBA6E000ECC6ECA8412000F0E3A
:100C8800C16EF19E6D966F8692689368F80E946EA9
:100C9800080E956E9668D59E1200010E826E020EA1
:100CA800836E68C063F069C064F01CEC05F0120044
:100CB800000E826E050E836E68C063F069C064F032
:100CC8001CEC05F012000F0E826E0A0E836E68C0CF
:100CD80063F069C064F01CEC05F012000F0E826E20
:100CE8000F0E836E68C063F069C064F01CEC05F0F9
:100CF8001200010E826E020E836E0BC006F00CC04D
:100D080007F09AEC05F01200000E826E050E836E55
:100D18000BC006F00CC007F09AEC05F012000F0E9D
:100D2800826E0A0E836E0BC006F00CC007F09AECB8
:100D380005F012000F0E826E0F0E836E0BC006F0C8
:100D48000CC007F09AEC05F0120084CF2FF02F1E8C
:100D58002F50070B2F6E2F50120082CF2FF02F1E0F
:100D68002F50F00B2F6E2F50120081CF2FF02F1E17
:100D78002F50F80B2F6E2F50120081CF01F0011E5B
:100D88000150F80B016E0150120082CF01F0011ED4
:100D98000150F00B016E0150120084CF01F0011ECA
:100DA8000150070B016E0150120031903192000E74
:100DB800F86E000197EF01F0F288F292F18C1200C0
:020000040020DA
:08000000FFFFFFFFFFFFFFFF00
:020000040030CA
:0E000000240E181EFF8181FF0FC00FE00F407D
:00000001FF
